{
  "contractName": "ERC20Token",
  "abi": [
    {
      "anonymous": false,
      "inputs": [
        {
          "indexed": true,
          "internalType": "address",
          "name": "tokenOwner",
          "type": "address"
        },
        {
          "indexed": true,
          "internalType": "address",
          "name": "spender",
          "type": "address"
        },
        {
          "indexed": false,
          "internalType": "uint256",
          "name": "tokens",
          "type": "uint256"
        }
      ],
      "name": "Approval",
      "type": "event"
    },
    {
      "anonymous": false,
      "inputs": [
        {
          "indexed": true,
          "internalType": "address",
          "name": "from",
          "type": "address"
        },
        {
          "indexed": true,
          "internalType": "address",
          "name": "to",
          "type": "address"
        },
        {
          "indexed": false,
          "internalType": "uint256",
          "name": "tokens",
          "type": "uint256"
        }
      ],
      "name": "Transfer",
      "type": "event"
    },
    {
      "inputs": [
        {
          "internalType": "address",
          "name": "",
          "type": "address"
        },
        {
          "internalType": "address",
          "name": "",
          "type": "address"
        }
      ],
      "name": "allowed",
      "outputs": [
        {
          "internalType": "uint256",
          "name": "",
          "type": "uint256"
        }
      ],
      "stateMutability": "view",
      "type": "function",
      "constant": true
    },
    {
      "inputs": [
        {
          "internalType": "address",
          "name": "",
          "type": "address"
        }
      ],
      "name": "balances",
      "outputs": [
        {
          "internalType": "uint256",
          "name": "",
          "type": "uint256"
        }
      ],
      "stateMutability": "view",
      "type": "function",
      "constant": true
    },
    {
      "inputs": [],
      "name": "decimals",
      "outputs": [
        {
          "internalType": "uint8",
          "name": "",
          "type": "uint8"
        }
      ],
      "stateMutability": "view",
      "type": "function",
      "constant": true
    },
    {
      "inputs": [],
      "name": "name",
      "outputs": [
        {
          "internalType": "string",
          "name": "",
          "type": "string"
        }
      ],
      "stateMutability": "view",
      "type": "function",
      "constant": true
    },
    {
      "inputs": [],
      "name": "symbol",
      "outputs": [
        {
          "internalType": "string",
          "name": "",
          "type": "string"
        }
      ],
      "stateMutability": "view",
      "type": "function",
      "constant": true
    },
    {
      "inputs": [],
      "name": "totSupply",
      "outputs": [
        {
          "internalType": "uint256",
          "name": "",
          "type": "uint256"
        }
      ],
      "stateMutability": "view",
      "type": "function",
      "constant": true
    },
    {
      "inputs": [
        {
          "internalType": "uint256",
          "name": "_initialAmount",
          "type": "uint256"
        },
        {
          "internalType": "string",
          "name": "_tokenName",
          "type": "string"
        },
        {
          "internalType": "uint8",
          "name": "_decimalUnits",
          "type": "uint8"
        },
        {
          "internalType": "string",
          "name": "_tokenSymbol",
          "type": "string"
        }
      ],
      "name": "ERC20",
      "outputs": [],
      "stateMutability": "nonpayable",
      "type": "function"
    },
    {
      "inputs": [
        {
          "internalType": "address",
          "name": "_to",
          "type": "address"
        },
        {
          "internalType": "uint256",
          "name": "_value",
          "type": "uint256"
        }
      ],
      "name": "transfer",
      "outputs": [
        {
          "internalType": "bool",
          "name": "success",
          "type": "bool"
        }
      ],
      "stateMutability": "nonpayable",
      "type": "function"
    },
    {
      "inputs": [
        {
          "internalType": "address",
          "name": "_from",
          "type": "address"
        },
        {
          "internalType": "address",
          "name": "_to",
          "type": "address"
        },
        {
          "internalType": "uint256",
          "name": "_value",
          "type": "uint256"
        }
      ],
      "name": "transferFrom",
      "outputs": [
        {
          "internalType": "bool",
          "name": "success",
          "type": "bool"
        }
      ],
      "stateMutability": "nonpayable",
      "type": "function"
    },
    {
      "inputs": [
        {
          "internalType": "address",
          "name": "_owner",
          "type": "address"
        }
      ],
      "name": "balanceOf",
      "outputs": [
        {
          "internalType": "uint256",
          "name": "balance",
          "type": "uint256"
        }
      ],
      "stateMutability": "view",
      "type": "function",
      "constant": true
    },
    {
      "inputs": [
        {
          "internalType": "address",
          "name": "_spender",
          "type": "address"
        },
        {
          "internalType": "uint256",
          "name": "_value",
          "type": "uint256"
        }
      ],
      "name": "approve",
      "outputs": [
        {
          "internalType": "bool",
          "name": "success",
          "type": "bool"
        }
      ],
      "stateMutability": "nonpayable",
      "type": "function"
    },
    {
      "inputs": [
        {
          "internalType": "address",
          "name": "_owner",
          "type": "address"
        },
        {
          "internalType": "address",
          "name": "_spender",
          "type": "address"
        }
      ],
      "name": "allowance",
      "outputs": [
        {
          "internalType": "uint256",
          "name": "remaining",
          "type": "uint256"
        }
      ],
      "stateMutability": "view",
      "type": "function",
      "constant": true
    },
    {
      "inputs": [],
      "name": "totalSupply",
      "outputs": [
        {
          "internalType": "uint256",
          "name": "totSupp",
          "type": "uint256"
        }
      ],
      "stateMutability": "view",
      "type": "function",
      "constant": true
    }
  ],
  "bytecode": "0x608060405234801561001057600080fd5b506114e0806100206000396000f3fe608060405234801561001057600080fd5b50600436106100cf5760003560e01c80635c6581651161008c57806395d89b411161006657806395d89b411461023c5780639f2c1fd81461025a578063a9059cbb14610276578063dd62ed3e146102a6576100cf565b80635c658165146101be57806370a08231146101ee57806381fbf0a51461021e576100cf565b806306fdde03146100d4578063095ea7b3146100f257806318160ddd1461012257806323b872dd1461014057806327e235e314610170578063313ce567146101a0575b600080fd5b6100dc6102d6565b6040516100e99190610bb0565b60405180910390f35b61010c60048036038101906101079190610c7a565b610364565b6040516101199190610cd5565b60405180910390f35b61012a610456565b6040516101379190610cff565b60405180910390f35b61015a60048036038101906101559190610d1a565b610460565b6040516101679190610cd5565b60405180910390f35b61018a60048036038101906101859190610d6d565b610746565b6040516101979190610cff565b60405180910390f35b6101a861075e565b6040516101b59190610db6565b60405180910390f35b6101d860048036038101906101d39190610dd1565b610771565b6040516101e59190610cff565b60405180910390f35b61020860048036038101906102039190610d6d565b610796565b6040516102159190610cff565b60405180910390f35b6102266107de565b6040516102339190610cff565b60405180910390f35b6102446107e4565b6040516102519190610bb0565b60405180910390f35b610274600480360381019061026f9190610f72565b610872565b005b610290600480360381019061028b9190610c7a565b6108fd565b60405161029d9190610cd5565b60405180910390f35b6102c060048036038101906102bb9190610dd1565b610a99565b6040516102cd9190610cff565b60405180910390f35b600380546102e390611040565b80601f016020809104026020016040519081016040528092919081815260200182805461030f90611040565b801561035c5780601f106103315761010080835404028352916020019161035c565b820191906000526020600020905b81548152906001019060200180831161033f57829003601f168201915b505050505081565b600081600160003373ffffffffffffffffffffffffffffffffffffffff1673ffffffffffffffffffffffffffffffffffffffff16815260200190815260200160002060008573ffffffffffffffffffffffffffffffffffffffff1673ffffffffffffffffffffffffffffffffffffffff168152602001908152602001600020819055508273ffffffffffffffffffffffffffffffffffffffff163373ffffffffffffffffffffffffffffffffffffffff167f8c5be1e5ebec7d5bd14f71427d1e84f3dd0314c0f7b2291e5b200ac8c7c3b925846040516104449190610cff565b60405180910390a36001905092915050565b6000600254905090565b600080600160008673ffffffffffffffffffffffffffffffffffffffff1673ffffffffffffffffffffffffffffffffffffffff16815260200190815260200160002060003373ffffffffffffffffffffffffffffffffffffffff1673ffffffffffffffffffffffffffffffffffffffff168152602001908152602001600020549050826000808773ffffffffffffffffffffffffffffffffffffffff1673ffffffffffffffffffffffffffffffffffffffff16815260200190815260200160002054101580156105305750828110155b61056f576040517f08c379a0000000000000000000000000000000000000000000000000000000008152600401610566906110e3565b60405180910390fd5b826000808673ffffffffffffffffffffffffffffffffffffffff1673ffffffffffffffffffffffffffffffffffffffff16815260200190815260200160002060008282546105bd9190611132565b92505081905550826000808773ffffffffffffffffffffffffffffffffffffffff1673ffffffffffffffffffffffffffffffffffffffff16815260200190815260200160002060008282546106129190611166565b925050819055507fffffffffffffffffffffffffffffffffffffffffffffffffffffffffffffffff8110156106d55782600160008773ffffffffffffffffffffffffffffffffffffffff1673ffffffffffffffffffffffffffffffffffffffff16815260200190815260200160002060003373ffffffffffffffffffffffffffffffffffffffff1673ffffffffffffffffffffffffffffffffffffffff16815260200190815260200160002060008282546106cd9190611166565b925050819055505b8373ffffffffffffffffffffffffffffffffffffffff168573ffffffffffffffffffffffffffffffffffffffff167fddf252ad1be2c89b69c2b068fc378daa952ba7f163c4a11628f55a4df523b3ef856040516107329190610cff565b60405180910390a360019150509392505050565b60006020528060005260406000206000915090505481565b600460009054906101000a900460ff1681565b6001602052816000526040600020602052806000526040600020600091509150505481565b60008060008373ffffffffffffffffffffffffffffffffffffffff1673ffffffffffffffffffffffffffffffffffffffff168152602001908152602001600020549050919050565b60025481565b600580546107f190611040565b80601f016020809104026020016040519081016040528092919081815260200182805461081d90611040565b801561086a5780601f1061083f5761010080835404028352916020019161086a565b820191906000526020600020905b81548152906001019060200180831161084d57829003601f168201915b505050505081565b836000803373ffffffffffffffffffffffffffffffffffffffff1673ffffffffffffffffffffffffffffffffffffffff168152602001908152602001600020819055508360028190555082600390816108cb9190611346565b5081600460006101000a81548160ff021916908360ff16021790555080600590816108f69190611346565b5050505050565b6000816000803373ffffffffffffffffffffffffffffffffffffffff1673ffffffffffffffffffffffffffffffffffffffff168152602001908152602001600020541015610980576040517f08c379a00000000000000000000000000000000000000000000000000000000081526004016109779061148a565b60405180910390fd5b816000803373ffffffffffffffffffffffffffffffffffffffff1673ffffffffffffffffffffffffffffffffffffffff16815260200190815260200160002060008282546109ce9190611166565b92505081905550816000808573ffffffffffffffffffffffffffffffffffffffff1673ffffffffffffffffffffffffffffffffffffffff1681526020019081526020016000206000828254610a239190611132565b925050819055508273ffffffffffffffffffffffffffffffffffffffff163373ffffffffffffffffffffffffffffffffffffffff167fddf252ad1be2c89b69c2b068fc378daa952ba7f163c4a11628f55a4df523b3ef84604051610a879190610cff565b60405180910390a36001905092915050565b6000600160008473ffffffffffffffffffffffffffffffffffffffff1673ffffffffffffffffffffffffffffffffffffffff16815260200190815260200160002060008373ffffffffffffffffffffffffffffffffffffffff1673ffffffffffffffffffffffffffffffffffffffff16815260200190815260200160002054905092915050565b600081519050919050565b600082825260208201905092915050565b60005b83811015610b5a578082015181840152602081019050610b3f565b60008484015250505050565b6000601f19601f8301169050919050565b6000610b8282610b20565b610b8c8185610b2b565b9350610b9c818560208601610b3c565b610ba581610b66565b840191505092915050565b60006020820190508181036000830152610bca8184610b77565b905092915050565b6000604051905090565b600080fd5b600080fd5b600073ffffffffffffffffffffffffffffffffffffffff82169050919050565b6000610c1182610be6565b9050919050565b610c2181610c06565b8114610c2c57600080fd5b50565b600081359050610c3e81610c18565b92915050565b6000819050919050565b610c5781610c44565b8114610c6257600080fd5b50565b600081359050610c7481610c4e565b92915050565b60008060408385031215610c9157610c90610bdc565b5b6000610c9f85828601610c2f565b9250506020610cb085828601610c65565b9150509250929050565b60008115159050919050565b610ccf81610cba565b82525050565b6000602082019050610cea6000830184610cc6565b92915050565b610cf981610c44565b82525050565b6000602082019050610d146000830184610cf0565b92915050565b600080600060608486031215610d3357610d32610bdc565b5b6000610d4186828701610c2f565b9350506020610d5286828701610c2f565b9250506040610d6386828701610c65565b9150509250925092565b600060208284031215610d8357610d82610bdc565b5b6000610d9184828501610c2f565b91505092915050565b600060ff82169050919050565b610db081610d9a565b82525050565b6000602082019050610dcb6000830184610da7565b92915050565b60008060408385031215610de857610de7610bdc565b5b6000610df685828601610c2f565b9250506020610e0785828601610c2f565b9150509250929050565b600080fd5b600080fd5b7f4e487b7100000000000000000000000000000000000000000000000000000000600052604160045260246000fd5b610e5382610b66565b810181811067ffffffffffffffff82111715610e7257610e71610e1b565b5b80604052505050565b6000610e85610bd2565b9050610e918282610e4a565b919050565b600067ffffffffffffffff821115610eb157610eb0610e1b565b5b610eba82610b66565b9050602081019050919050565b82818337600083830152505050565b6000610ee9610ee484610e96565b610e7b565b905082815260208101848484011115610f0557610f04610e16565b5b610f10848285610ec7565b509392505050565b600082601f830112610f2d57610f2c610e11565b5b8135610f3d848260208601610ed6565b91505092915050565b610f4f81610d9a565b8114610f5a57600080fd5b50565b600081359050610f6c81610f46565b92915050565b60008060008060808587031215610f8c57610f8b610bdc565b5b6000610f9a87828801610c65565b945050602085013567ffffffffffffffff811115610fbb57610fba610be1565b5b610fc787828801610f18565b9350506040610fd887828801610f5d565b925050606085013567ffffffffffffffff811115610ff957610ff8610be1565b5b61100587828801610f18565b91505092959194509250565b7f4e487b7100000000000000000000000000000000000000000000000000000000600052602260045260246000fd5b6000600282049050600182168061105857607f821691505b60208210810361106b5761106a611011565b5b50919050565b7f496e73756666696369656e7420616c6c6f7765642066756e647320666f72207460008201527f72616e7366657220736f757263652e0000000000000000000000000000000000602082015250565b60006110cd602f83610b2b565b91506110d882611071565b604082019050919050565b600060208201905081810360008301526110fc816110c0565b9050919050565b7f4e487b7100000000000000000000000000000000000000000000000000000000600052601160045260246000fd5b600061113d82610c44565b915061114883610c44565b92508282019050808211156111605761115f611103565b5b92915050565b600061117182610c44565b915061117c83610c44565b925082820390508181111561119457611193611103565b5b92915050565b60008190508160005260206000209050919050565b60006020601f8301049050919050565b600082821b905092915050565b6000600883026111fc7fffffffffffffffffffffffffffffffffffffffffffffffffffffffffffffffff826111bf565b61120686836111bf565b95508019841693508086168417925050509392505050565b6000819050919050565b600061124361123e61123984610c44565b61121e565b610c44565b9050919050565b6000819050919050565b61125d83611228565b6112716112698261124a565b8484546111cc565b825550505050565b600090565b611286611279565b611291818484611254565b505050565b5b818110156112b5576112aa60008261127e565b600181019050611297565b5050565b601f8211156112fa576112cb8161119a565b6112d4846111af565b810160208510156112e3578190505b6112f76112ef856111af565b830182611296565b50505b505050565b600082821c905092915050565b600061131d600019846008026112ff565b1980831691505092915050565b6000611336838361130c565b9150826002028217905092915050565b61134f82610b20565b67ffffffffffffffff81111561136857611367610e1b565b5b6113728254611040565b61137d8282856112b9565b600060209050601f8311600181146113b0576000841561139e578287015190505b6113a8858261132a565b865550611410565b601f1984166113be8661119a565b60005b828110156113e6578489015182556001820191506020850194506020810190506113c1565b8683101561140357848901516113ff601f89168261130c565b8355505b6001600288020188555050505b505050505050565b7f496e73756666696369656e742066756e647320666f72207472616e736665722060008201527f736f757263652e00000000000000000000000000000000000000000000000000602082015250565b6000611474602783610b2b565b915061147f82611418565b604082019050919050565b600060208201905081810360008301526114a381611467565b905091905056fea264697066735822122036a0b5015075c79e21cbb5bddab9bc9ea52a1aa00850a4846a070386e26e6ea664736f6c63430008110033",
  "immutableReferences": {},
  "source": "// SPDX-License-Identifier: MIT\r\n// ----------------------------------------------------------------------------\r\n\r\n///Implements EIP20 token standard: https://github.com/ethereum/EIPs/blob/master/EIPS/eip-20.md\r\n\r\n// ----------------------------------------------------------------------------\r\n\r\n \r\npragma solidity >=0.8.4 <0.9.0;\r\n\r\n \r\n\r\nimport \"./erc20Interface.sol\";\r\n\r\n \r\n\r\ncontract ERC20Token is ERC20Interface {\r\n\r\n \r\n\r\n    uint256 constant private MAX_UINT256 = 2**256 - 1;\r\n\r\n    mapping (address => uint256) public balances;\r\n\r\n    mapping (address => mapping (address => uint256)) public allowed;\r\n\r\n \r\n\r\n    uint256 public totSupply;           // Total number of tokens\r\n\r\n    string public name;                   // Descriptive name (i.e. For Dummies Sample Token)\r\n\r\n    uint8 public decimals;                // How many decimals to use when displaying amounts\r\n\r\n    string public symbol;                 // Short identifier for token (i.e. FDT)\r\n\r\n \r\n\r\n    // Create the new token and assign initial values, including initial amount\r\n\r\n    function ERC20 (\r\n\r\n        uint256 _initialAmount,\r\n\r\n        string memory _tokenName,\r\n\r\n        uint8 _decimalUnits,\r\n\r\n        string memory _tokenSymbol\r\n\r\n    ) public {\r\n\r\n        balances[msg.sender] = _initialAmount;               // The creator owns all initial tokens\r\n\r\n        totSupply = _initialAmount;                        // Update total token supply\r\n\r\n        name = _tokenName;                                   // Store the token name (used for display only)\r\n\r\n        decimals = _decimalUnits;                            // Store the number of decimals (used for display only)\r\n\r\n        symbol = _tokenSymbol;                               // Store the token symbol (used for display only)\r\n\r\n    }\r\n\r\n \r\n\r\n    // Transfer tokens from msg.sender to a specified address\r\n\r\n    function transfer(address _to, uint256 _value) public returns (bool success) {\r\n\r\n        require(balances[msg.sender] >= _value,\"Insufficient funds for transfer source.\");\r\n\r\n        balances[msg.sender] -= _value;\r\n\r\n        balances[_to] += _value;\r\n\r\n        emit Transfer(msg.sender, _to, _value); //solhint-disable-line indent, no-unused-vars\r\n\r\n        return true;\r\n\r\n    }\r\n\r\n \r\n\r\n    // Transfer tokens from one specified address to another specified address\r\n\r\n    function transferFrom(address _from, address _to, uint256 _value) public returns (bool success) {\r\n\r\n        uint256 allowance = allowed[_from][msg.sender];\r\n\r\n        require(balances[_from] >= _value && allowance >= _value,\"Insufficient allowed funds for transfer source.\");\r\n\r\n        balances[_to] += _value;\r\n\r\n        balances[_from] -= _value;\r\n\r\n        if (allowance < MAX_UINT256) {\r\n\r\n            allowed[_from][msg.sender] -= _value;\r\n\r\n        }\r\n\r\n        emit Transfer(_from, _to, _value); //solhint-disable-line indent, no-unused-vars\r\n\r\n        return true;\r\n\r\n    }\r\n\r\n \r\n\r\n    // Return the current balance (in tokens) of a specified address\r\n\r\n    function balanceOf(address _owner) public view returns (uint256 balance) {\r\n\r\n        return balances[_owner];\r\n\r\n    }\r\n\r\n \r\n\r\n    // Set\r\n\r\n    function approve(address _spender, uint256 _value) public returns (bool success) {\r\n\r\n        allowed[msg.sender][_spender] = _value;\r\n\r\n        emit Approval(msg.sender, _spender, _value); //solhint-disable-line indent, no-unused-vars\r\n\r\n        return true;\r\n\r\n   }\r\n\r\n \r\n\r\n    // Return the\r\n\r\n    function allowance(address _owner, address _spender) public view returns (uint256 remaining) {\r\n\r\n        return allowed[_owner][_spender];\r\n\r\n    }\r\n\r\n \r\n\r\n    // Return the total number of tokens in circulation\r\n\r\n    function totalSupply() public view returns (uint256 totSupp) {\r\n\r\n        return totSupply;\r\n\r\n    }\r\n\r\n}\r\n\r\n",
  "sourcePath": "C:\\Users\\sebid\\ethereum_workspace\\SupplyChainApp\\contracts\\erc20Token.sol",
  "compiler": {
    "name": "solc",
    "version": "0.8.17+commit.8df45f5f.Emscripten.clang"
  },
  "schemaVersion": "3.4.10",
  "updatedAt": "2022-10-05T00:16:56.995Z",
  "networkType": "ethereum",
  "devdoc": {
    "kind": "dev",
    "methods": {},
    "version": 1
  },
  "userdoc": {
    "kind": "user",
    "methods": {},
    "version": 1
  }
}